{
  "contractName": "Customer",
  "abi": [
    {
      "inputs": [],
      "payable": false,
      "stateMutability": "nonpayable",
      "type": "constructor",
      "signature": "constructor"
    },
    {
      "anonymous": false,
      "inputs": [
        {
          "indexed": false,
          "name": "idOrder",
          "type": "uint256"
        }
      ],
      "name": "OrderRaisedOrUpdated",
      "type": "event",
      "signature": "0xfd4b9f33f750059f7f0fea80cc0091c7788f7b097feddbd26b1e87482cad21f3"
    },
    {
      "constant": false,
      "inputs": [
        {
          "name": "itemName",
          "type": "bytes32"
        },
        {
          "name": "quantity",
          "type": "uint256"
        }
      ],
      "name": "purchaseItem",
      "outputs": [],
      "payable": false,
      "stateMutability": "nonpayable",
      "type": "function",
      "signature": "0x94193dd2"
    },
    {
      "constant": false,
      "inputs": [
        {
          "name": "idOrder",
          "type": "uint256"
        }
      ],
      "name": "recieveItem",
      "outputs": [],
      "payable": false,
      "stateMutability": "nonpayable",
      "type": "function",
      "signature": "0x0657de33"
    },
    {
      "constant": true,
      "inputs": [
        {
          "name": "idOrder",
          "type": "uint256"
        }
      ],
      "name": "getOrderDetails",
      "outputs": [
        {
          "name": "",
          "type": "bytes32"
        },
        {
          "name": "",
          "type": "uint256"
        },
        {
          "name": "",
          "type": "bool"
        }
      ],
      "payable": false,
      "stateMutability": "view",
      "type": "function",
      "signature": "0xec7dd7bb"
    },
    {
      "constant": true,
      "inputs": [],
      "name": "getNumberOfItemsPurchased",
      "outputs": [
        {
          "name": "",
          "type": "uint256"
        }
      ],
      "payable": false,
      "stateMutability": "view",
      "type": "function",
      "signature": "0xd103b02c"
    },
    {
      "constant": true,
      "inputs": [],
      "name": "getNumberOfItemsReceived",
      "outputs": [
        {
          "name": "",
          "type": "uint256"
        }
      ],
      "payable": false,
      "stateMutability": "view",
      "type": "function",
      "signature": "0x77c3d81b"
    }
  ],
  "bytecode": "0x608060405234801561001057600080fd5b506040805190810160405280600181526020017f4a6f686e20536e6f7700000000000000000000000000000000000000000000008152506002600080815260200190815260200160002060008201518160000155602082015181600101559050506103a1806100806000396000f3fe60806040526004361061006d576000357c0100000000000000000000000000000000000000000000000000000000900463ffffffff1680630657de331461007257806377c3d81b146100ad57806394193dd2146100d8578063d103b02c1461011d578063ec7dd7bb14610148575b600080fd5b34801561007e57600080fd5b506100ab6004803603602081101561009557600080fd5b81019080803590602001909291905050506101a9565b005b3480156100b957600080fd5b506100c2610224565b6040518082815260200191505060405180910390f35b3480156100e457600080fd5b5061011b600480360360408110156100fb57600080fd5b81019080803590602001909291908035906020019092919050505061022e565b005b34801561012957600080fd5b50610132610308565b6040518082815260200191505060405180910390f35b34801561015457600080fd5b506101816004803603602081101561016b57600080fd5b8101908080359060200190929190505050610311565b6040518084815260200183815260200182151515158152602001935050505060405180910390f35b60016000815480929190600101919050555060016003600083815260200190815260200160002060040160006101000a81548160ff0219169083151502179055507ffd4b9f33f750059f7f0fea80cc0091c7788f7b097feddbd26b1e87482cad21f3816040518082815260200191505060405180910390a150565b6000600154905090565b600080600081548092919060010191905055905060a0604051908101604052808281526020016000815260200184815260200183815260200160001515815250600360008381526020019081526020016000206000820151816000015560208201518160010155604082015181600201556060820151816003015560808201518160040160006101000a81548160ff0219169083151502179055509050507ffd4b9f33f750059f7f0fea80cc0091c7788f7b097feddbd26b1e87482cad21f3816040518082815260200191505060405180910390a1505050565b60008054905090565b6000806000600360008581526020019081526020016000206002015460036000868152602001908152602001600020600301546003600087815260200190815260200160002060040160009054906101000a900460ff16925092509250919390925056fea165627a7a72305820cc8701acff41438aea3b982b70fa48711568602cd295559950e28a09cd4fcfdd0029",
  "source": "pragma solidity >=0.4.23 <=0.6.0;\ncontract Customer {\n\n  event OrderRaisedOrUpdated(uint idOrder);\n\n  struct AvailableCustomer {\n    uint idCustomer;\n    bytes32 customerName;\n  }\n\n  struct Orderlog {\n    uint idOrder;\n    uint idCustomer;\n    bytes32 itemName;\n    uint quantity;\n    bool status;\n  }\n\n  uint numberOfItemsPurchased;\n  uint numberOfItemsReceived;\n\n  mapping (uint => AvailableCustomer) customers;\n  mapping (uint => Orderlog) orderLogs;\n\n  constructor() public {\n      customers[0] = AvailableCustomer(1, \"John Snow\");\n  }\n\n  function purchaseItem(bytes32 itemName, uint quantity) public {\n    uint idOrder = numberOfItemsPurchased++;\n    orderLogs[idOrder] = Orderlog(idOrder, 0, itemName, quantity, false);\n    emit OrderRaisedOrUpdated(idOrder);\n  }\n\n  function recieveItem(uint idOrder) public {\n      numberOfItemsReceived++;\n      orderLogs[idOrder].status = true;\n      emit OrderRaisedOrUpdated(idOrder);\n  }\n\n  function getOrderDetails(uint idOrder) view public returns (bytes32, uint, bool){\n    return (orderLogs[idOrder].itemName, orderLogs[idOrder].quantity, orderLogs[idOrder].status);\n  }\n\n  function getNumberOfItemsPurchased() view public returns (uint) {\n    return numberOfItemsPurchased;\n  }\n\n  function getNumberOfItemsReceived() view public returns (uint) {\n    return numberOfItemsReceived;\n  }\n\n}\n",
  "sourcePath": "/home/revv/Desktop/backend/contracts/Customer.sol",
  "compiler": {
    "name": "solc",
    "version": "0.5.0+commit.1d4f565a.Emscripten.clang"
  },
  "schemaVersion": "3.0.3",
  "updatedAt": "2019-03-17T07:04:20.634Z",
  "devdoc": {
    "methods": {}
  },
  "userdoc": {
    "methods": {}
  }
}