{
  "contractName": "Gov",
  "abi": [
    {
      "anonymous": false,
      "inputs": [
        {
          "indexed": false,
          "name": "idOfCustomer",
          "type": "uint256"
        },
        {
          "indexed": false,
          "name": "idOrder",
          "type": "uint256"
        },
        {
          "indexed": false,
          "name": "status",
          "type": "bool"
        }
      ],
      "name": "ProcessAnOrder",
      "type": "event",
      "signature": "0x13c5c248f81aca9d8fa3643449bd2debad3b6ec68931a70443181d3e60352ee7"
    },
    {
      "anonymous": false,
      "inputs": [
        {
          "indexed": false,
          "name": "idItem",
          "type": "uint256"
        }
      ],
      "name": "ItemAdded",
      "type": "event",
      "signature": "0x186760a37e06b130959978c68b5c592841caf4f64de1dc960b2c54cf454ca9dd"
    },
    {
      "constant": false,
      "inputs": [
        {
          "name": "itemName",
          "type": "bytes32"
        },
        {
          "name": "price",
          "type": "uint256"
        }
      ],
      "name": "addItem",
      "outputs": [],
      "payable": false,
      "stateMutability": "nonpayable",
      "type": "function",
      "signature": "0xe60451f4"
    },
    {
      "constant": false,
      "inputs": [
        {
          "name": "idOrder",
          "type": "uint256"
        },
        {
          "name": "idCustomer",
          "type": "uint256"
        }
      ],
      "name": "processOrder",
      "outputs": [],
      "payable": false,
      "stateMutability": "nonpayable",
      "type": "function",
      "signature": "0x804544c4"
    },
    {
      "constant": true,
      "inputs": [
        {
          "name": "idItem",
          "type": "uint256"
        }
      ],
      "name": "getItem",
      "outputs": [
        {
          "name": "",
          "type": "bytes32"
        },
        {
          "name": "",
          "type": "uint256"
        }
      ],
      "payable": false,
      "stateMutability": "view",
      "type": "function",
      "signature": "0x3129e773"
    },
    {
      "constant": true,
      "inputs": [
        {
          "name": "idOrder",
          "type": "uint256"
        }
      ],
      "name": "getStatus",
      "outputs": [
        {
          "name": "",
          "type": "bool"
        }
      ],
      "payable": false,
      "stateMutability": "view",
      "type": "function",
      "signature": "0x5c622a0e"
    },
    {
      "constant": true,
      "inputs": [],
      "name": "getTotalNumberOfAvailableItems",
      "outputs": [
        {
          "name": "",
          "type": "uint256"
        }
      ],
      "payable": false,
      "stateMutability": "view",
      "type": "function",
      "signature": "0x941e53a7"
    },
    {
      "constant": true,
      "inputs": [],
      "name": "getTotalNumberOfOrdersProcessed",
      "outputs": [
        {
          "name": "",
          "type": "uint256"
        }
      ],
      "payable": false,
      "stateMutability": "view",
      "type": "function",
      "signature": "0x3946abfd"
    }
  ],
  "bytecode": "0x608060405234801561001057600080fd5b50610417806100206000396000f3fe608060405260043610610078576000357c0100000000000000000000000000000000000000000000000000000000900463ffffffff1680633129e7731461007d5780633946abfd146100d35780635c622a0e146100fe578063804544c414610151578063941e53a714610196578063e60451f4146101c1575b600080fd5b34801561008957600080fd5b506100b6600480360360208110156100a057600080fd5b8101908080359060200190929190505050610206565b604051808381526020018281526020019250505060405180910390f35b3480156100df57600080fd5b506100e8610240565b6040518082815260200191505060405180910390f35b34801561010a57600080fd5b506101376004803603602081101561012157600080fd5b810190808035906020019092919050505061024a565b604051808215151515815260200191505060405180910390f35b34801561015d57600080fd5b506101946004803603604081101561017457600080fd5b810190808035906020019092919080359060200190929190505050610277565b005b3480156101a257600080fd5b506101ab610342565b6040518082815260200191505060405180910390f35b3480156101cd57600080fd5b50610204600480360360408110156101e457600080fd5b81019080803590602001909291908035906020019092919050505061034b565b005b6000806002600084815260200190815260200160002060010154600260008581526020019081526020016000206002015491509150915091565b6000600154905090565b60006003600083815260200190815260200160002060020160009054906101000a900460ff169050919050565b6060604051908101604052808281526020018381526020016001151581525060036000848152602001908152602001600020600082015181600001556020820151816001015560408201518160020160006101000a81548160ff0219169083151502179055509050506001600081548092919060010191905055507f13c5c248f81aca9d8fa3643449bd2debad3b6ec68931a70443181d3e60352ee7818360016040518084815260200183815260200182151515158152602001935050505060405180910390a15050565b60008054905090565b600080600081548092919060010191905055905060606040519081016040528082815260200184815260200183815250600260008381526020019081526020016000206000820151816000015560208201518160010155604082015181600201559050507f186760a37e06b130959978c68b5c592841caf4f64de1dc960b2c54cf454ca9dd816040518082815260200191505060405180910390a150505056fea165627a7a72305820d59e6302d6b1774363696a32b2b79cf3613ce4161b944a13c72e9f516412edab0029",
  "source": "pragma solidity >=0.4.23 <=0.6.0;\n\ncontract Gov {\n\n  event ProcessAnOrder(uint idOfCustomer, uint idOrder, bool status);\n\n  struct Item {\n    uint idItem;\n    bytes32 itemName;\n    uint price;\n  }\n\n  struct Orderlog {\n    uint idOfCustomer;\n    uint idOrder;\n    bool status;\n  }\n  event ItemAdded(uint idItem);\n\n  uint numberOfItemsAvailableForSale;\n  uint numberOfOrdersProcessed;\n\n  mapping (uint => Item) items;\n  mapping (uint => Orderlog) orderLogs;\n\n\n  function addItem(bytes32 itemName, uint price) public {\n    uint idItem = numberOfItemsAvailableForSale++;\n    items[idItem] = Item(idItem, itemName, price);\n    emit ItemAdded(idItem);\n  }\n\n  function processOrder(uint idOrder, uint idCustomer) public {\n    orderLogs[idOrder] = Orderlog(idCustomer, idOrder, true);\n    numberOfOrdersProcessed ++;\n    emit ProcessAnOrder(idCustomer, idOrder, true);\n  }\n\n  function getItem(uint idItem) view public returns (bytes32, uint){\n    return (items[idItem].itemName, items[idItem].price);\n  }\n\n  function getStatus(uint idOrder) view public returns (bool) {\n    return (orderLogs[idOrder].status);\n  }\n\n  function getTotalNumberOfAvailableItems() view public returns (uint) {\n    return numberOfItemsAvailableForSale;\n  }\n\n  function getTotalNumberOfOrdersProcessed() view public returns (uint){\n    return numberOfOrdersProcessed;\n  }\n\n}\n",
  "sourcePath": "/home/revv/Desktop/backend/contracts/Gov.sol",
  "compiler": {
    "name": "solc",
    "version": "0.5.0+commit.1d4f565a.Emscripten.clang"
  },
  "schemaVersion": "3.0.3",
  "updatedAt": "2019-03-17T07:04:20.636Z",
  "devdoc": {
    "methods": {}
  },
  "userdoc": {
    "methods": {}
  }
}