{
  "contractName": "Level1",
  "abi": [
    {
      "constant": true,
      "inputs": [
        {
          "name": "",
          "type": "uint256"
        }
      ],
      "name": "proposals",
      "outputs": [
        {
          "name": "organizationId",
          "type": "uint256"
        },
        {
          "name": "contId",
          "type": "uint256"
        },
        {
          "name": "proposalDescription",
          "type": "string"
        },
        {
          "name": "proposalTitle",
          "type": "string"
        },
        {
          "name": "is_awarded",
          "type": "bool"
        },
        {
          "name": "costEstimate",
          "type": "uint256"
        }
      ],
      "payable": false,
      "stateMutability": "view",
      "type": "function"
    },
    {
      "constant": true,
      "inputs": [
        {
          "name": "",
          "type": "uint256"
        }
      ],
      "name": "auths",
      "outputs": [
        {
          "name": "authorityAddress",
          "type": "address"
        },
        {
          "name": "authorityName",
          "type": "string"
        },
        {
          "name": "authorityId",
          "type": "uint256"
        },
        {
          "name": "authWeight",
          "type": "uint256"
        }
      ],
      "payable": false,
      "stateMutability": "view",
      "type": "function"
    },
    {
      "constant": true,
      "inputs": [
        {
          "name": "",
          "type": "uint256"
        }
      ],
      "name": "citizens",
      "outputs": [
        {
          "name": "citizenAddress",
          "type": "address"
        },
        {
          "name": "citizenName",
          "type": "string"
        },
        {
          "name": "citizenId",
          "type": "uint256"
        }
      ],
      "payable": false,
      "stateMutability": "view",
      "type": "function"
    },
    {
      "constant": true,
      "inputs": [],
      "name": "state_gov",
      "outputs": [
        {
          "name": "",
          "type": "address"
        }
      ],
      "payable": false,
      "stateMutability": "view",
      "type": "function"
    },
    {
      "constant": true,
      "inputs": [
        {
          "name": "",
          "type": "uint256"
        }
      ],
      "name": "contracts",
      "outputs": [
        {
          "name": "distId",
          "type": "uint256"
        },
        {
          "name": "taskId",
          "type": "uint256"
        },
        {
          "name": "isIssued",
          "type": "bool"
        },
        {
          "name": "votes",
          "type": "uint256"
        }
      ],
      "payable": false,
      "stateMutability": "view",
      "type": "function"
    },
    {
      "constant": true,
      "inputs": [
        {
          "name": "",
          "type": "uint256"
        }
      ],
      "name": "votes",
      "outputs": [
        {
          "name": "contId",
          "type": "uint256"
        },
        {
          "name": "vote_points",
          "type": "uint256"
        }
      ],
      "payable": false,
      "stateMutability": "view",
      "type": "function"
    },
    {
      "constant": true,
      "inputs": [
        {
          "name": "",
          "type": "uint256"
        }
      ],
      "name": "payments",
      "outputs": [
        {
          "name": "to",
          "type": "address"
        },
        {
          "name": "cost",
          "type": "uint256"
        }
      ],
      "payable": false,
      "stateMutability": "view",
      "type": "function"
    },
    {
      "constant": true,
      "inputs": [
        {
          "name": "",
          "type": "uint256"
        }
      ],
      "name": "tasks",
      "outputs": [
        {
          "name": "taskId",
          "type": "uint256"
        },
        {
          "name": "taskTitle",
          "type": "string"
        },
        {
          "name": "propId",
          "type": "uint256"
        },
        {
          "name": "numVotes",
          "type": "uint256"
        },
        {
          "name": "status",
          "type": "uint256"
        },
        {
          "name": "is_completed",
          "type": "bool"
        }
      ],
      "payable": false,
      "stateMutability": "view",
      "type": "function"
    },
    {
      "constant": true,
      "inputs": [
        {
          "name": "",
          "type": "uint256"
        }
      ],
      "name": "districts",
      "outputs": [
        {
          "name": "districtAddress",
          "type": "address"
        },
        {
          "name": "districtTitle",
          "type": "string"
        },
        {
          "name": "districtId",
          "type": "uint256"
        }
      ],
      "payable": false,
      "stateMutability": "view",
      "type": "function"
    },
    {
      "constant": true,
      "inputs": [
        {
          "name": "",
          "type": "uint256"
        }
      ],
      "name": "organizations",
      "outputs": [
        {
          "name": "organizationAddress",
          "type": "address"
        },
        {
          "name": "organizationId",
          "type": "uint256"
        },
        {
          "name": "organizationTitle",
          "type": "string"
        }
      ],
      "payable": false,
      "stateMutability": "view",
      "type": "function"
    },
    {
      "inputs": [],
      "payable": false,
      "stateMutability": "nonpayable",
      "type": "constructor"
    },
    {
      "constant": false,
      "inputs": [
        {
          "name": "task_id",
          "type": "uint256"
        },
        {
          "name": "task_title",
          "type": "string"
        }
      ],
      "name": "registerTask",
      "outputs": [],
      "payable": false,
      "stateMutability": "nonpayable",
      "type": "function"
    },
    {
      "constant": false,
      "inputs": [
        {
          "name": "dist_address",
          "type": "address"
        },
        {
          "name": "dist_Id",
          "type": "uint256"
        },
        {
          "name": "dist_Title",
          "type": "string"
        }
      ],
      "name": "registerDistrict",
      "outputs": [],
      "payable": false,
      "stateMutability": "nonpayable",
      "type": "function"
    },
    {
      "constant": false,
      "inputs": [
        {
          "name": "task_id",
          "type": "uint256"
        },
        {
          "name": "dist_id",
          "type": "uint256"
        }
      ],
      "name": "passContract",
      "outputs": [],
      "payable": false,
      "stateMutability": "nonpayable",
      "type": "function"
    },
    {
      "constant": false,
      "inputs": [
        {
          "name": "org_address",
          "type": "address"
        },
        {
          "name": "org_Id",
          "type": "uint256"
        },
        {
          "name": "org_title",
          "type": "string"
        }
      ],
      "name": "registerOrganization",
      "outputs": [],
      "payable": false,
      "stateMutability": "nonpayable",
      "type": "function"
    },
    {
      "constant": false,
      "inputs": [
        {
          "name": "cont_id",
          "type": "uint256"
        }
      ],
      "name": "issueContract",
      "outputs": [],
      "payable": false,
      "stateMutability": "nonpayable",
      "type": "function"
    },
    {
      "constant": false,
      "inputs": [
        {
          "name": "org_Id",
          "type": "uint256"
        },
        {
          "name": "cont_Id",
          "type": "uint256"
        },
        {
          "name": "prop_Desc",
          "type": "string"
        },
        {
          "name": "prop_Title",
          "type": "string"
        },
        {
          "name": "cost",
          "type": "uint256"
        }
      ],
      "name": "registerProposal",
      "outputs": [],
      "payable": false,
      "stateMutability": "nonpayable",
      "type": "function"
    },
    {
      "constant": false,
      "inputs": [
        {
          "name": "cont_Id",
          "type": "uint256"
        },
        {
          "name": "prop_Id",
          "type": "uint256"
        }
      ],
      "name": "winningProposal",
      "outputs": [],
      "payable": false,
      "stateMutability": "nonpayable",
      "type": "function"
    },
    {
      "constant": false,
      "inputs": [
        {
          "name": "cit_address",
          "type": "address"
        },
        {
          "name": "cit_Id",
          "type": "uint256"
        },
        {
          "name": "cit_Name",
          "type": "string"
        }
      ],
      "name": "registerCitizen",
      "outputs": [],
      "payable": false,
      "stateMutability": "nonpayable",
      "type": "function"
    },
    {
      "constant": false,
      "inputs": [
        {
          "name": "cont_Id",
          "type": "uint256"
        },
        {
          "name": "vote",
          "type": "bool"
        }
      ],
      "name": "taskingVote",
      "outputs": [],
      "payable": false,
      "stateMutability": "nonpayable",
      "type": "function"
    },
    {
      "constant": true,
      "inputs": [
        {
          "name": "cont_id",
          "type": "uint256"
        }
      ],
      "name": "verifyCompletion",
      "outputs": [
        {
          "name": "",
          "type": "bool"
        }
      ],
      "payable": false,
      "stateMutability": "view",
      "type": "function"
    },
    {
      "constant": false,
      "inputs": [
        {
          "name": "cont_id",
          "type": "uint256"
        }
      ],
      "name": "payment",
      "outputs": [],
      "payable": false,
      "stateMutability": "nonpayable",
      "type": "function"
    }
  ],
  "bytecode": "0x608060405234801561001057600080fd5b50336000806101000a81548173ffffffffffffffffffffffffffffffffffffffff021916908373ffffffffffffffffffffffffffffffffffffffff1602179055506001600a60003373ffffffffffffffffffffffffffffffffffffffff1673ffffffffffffffffffffffffffffffffffffffff16815260200190815260200160002081905550612860806100a56000396000f3fe60806040526004361061011d576000357c0100000000000000000000000000000000000000000000000000000000900463ffffffff168063013cf08b14610122578063068df3dd1461026257806309a34f001461035757806327afbbee1461044557806343e29d721461049c578063474da79a146104d75780635df813301461053f57806383dc50481461059557806387d81789146105da5780638b3c99e31461065c5780638d977672146106975780639551e091146107725780639eaaa84c146107b9578063a07d7bb814610936578063acd1ad1314610a28578063adbaa03d14610b1a578063cc9fb47d14610b5f578063ccdef11014610c31578063dd07508714610c84578063e77995e014610d76578063e792dd8a14610e64575b600080fd5b34801561012e57600080fd5b5061015b6004803603602081101561014557600080fd5b8101908080359060200190929190505050610f52565b60405180878152602001868152602001806020018060200185151515158152602001848152602001838103835287818151815260200191508051906020019080838360005b838110156101bb5780820151818401526020810190506101a0565b50505050905090810190601f1680156101e85780820380516001836020036101000a031916815260200191505b50838103825286818151815260200191508051906020019080838360005b83811015610221578082015181840152602081019050610206565b50505050905090810190601f16801561024e5780820380516001836020036101000a031916815260200191505b509850505050505050505060405180910390f35b34801561026e57600080fd5b5061029b6004803603602081101561028557600080fd5b81019080803590602001909291905050506110da565b604051808573ffffffffffffffffffffffffffffffffffffffff1673ffffffffffffffffffffffffffffffffffffffff16815260200180602001848152602001838152602001828103825285818151815260200191508051906020019080838360005b838110156103195780820151818401526020810190506102fe565b50505050905090810190601f1680156103465780820380516001836020036101000a031916815260200191505b509550505050505060405180910390f35b34801561036357600080fd5b506103906004803603602081101561037a57600080fd5b81019080803590602001909291905050506111d1565b604051808473ffffffffffffffffffffffffffffffffffffffff1673ffffffffffffffffffffffffffffffffffffffff16815260200180602001838152602001828103825284818151815260200191508051906020019080838360005b838110156104085780820151818401526020810190506103ed565b50505050905090810190601f1680156104355780820380516001836020036101000a031916815260200191505b5094505050505060405180910390f35b34801561045157600080fd5b5061045a6112c2565b604051808273ffffffffffffffffffffffffffffffffffffffff1673ffffffffffffffffffffffffffffffffffffffff16815260200191505060405180910390f35b3480156104a857600080fd5b506104d5600480360360208110156104bf57600080fd5b81019080803590602001909291905050506112e7565b005b3480156104e357600080fd5b50610510600480360360208110156104fa57600080fd5b8101908080359060200190929190505050611371565b604051808581526020018481526020018315151515815260200182815260200194505050505060405180910390f35b34801561054b57600080fd5b506105786004803603602081101561056257600080fd5b81019080803590602001909291905050506113bd565b604051808381526020018281526020019250505060405180910390f35b3480156105a157600080fd5b506105d8600480360360408110156105b857600080fd5b8101908080359060200190929190803590602001909291905050506113f0565b005b3480156105e657600080fd5b50610613600480360360208110156105fd57600080fd5b8101908080359060200190929190505050611535565b604051808373ffffffffffffffffffffffffffffffffffffffff1673ffffffffffffffffffffffffffffffffffffffff1681526020018281526020019250505060405180910390f35b34801561066857600080fd5b506106956004803603602081101561067f57600080fd5b8101908080359060200190929190505050611588565b005b3480156106a357600080fd5b506106d0600480360360208110156106ba57600080fd5b81019080803590602001909291905050506116f1565b604051808781526020018060200186815260200185815260200184815260200183151515158152602001828103825287818151815260200191508051906020019080838360005b83811015610732578082015181840152602081019050610717565b50505050905090810190601f16801561075f5780820380516001836020036101000a031916815260200191505b5097505050505050505060405180910390f35b34801561077e57600080fd5b506107b76004803603604081101561079557600080fd5b81019080803590602001909291908035151590602001909291905050506117e1565b005b3480156107c557600080fd5b50610934600480360360a08110156107dc57600080fd5b8101908080359060200190929190803590602001909291908035906020019064010000000081111561080d57600080fd5b82018360208201111561081f57600080fd5b8035906020019184600183028401116401000000008311171561084157600080fd5b91908080601f016020809104026020016040519081016040528093929190818152602001838380828437600081840152601f19601f820116905080830192505050505050509192919290803590602001906401000000008111156108a457600080fd5b8201836020820111156108b657600080fd5b803590602001918460018302840111640100000000831117156108d857600080fd5b91908080601f016020809104026020016040519081016040528093929190818152602001838380828437600081840152601f19601f82011690508083019250505050505050919291929080359060200190929190505050611ab9565b005b34801561094257600080fd5b50610a266004803603606081101561095957600080fd5b81019080803573ffffffffffffffffffffffffffffffffffffffff16906020019092919080359060200190929190803590602001906401000000008111156109a057600080fd5b8201836020820111156109b257600080fd5b803590602001918460018302840111640100000000831117156109d457600080fd5b91908080601f016020809104026020016040519081016040528093929190818152602001838380828437600081840152601f19601f820116905080830192505050505050509192919290505050611cd4565b005b348015610a3457600080fd5b50610b1860048036036060811015610a4b57600080fd5b81019080803573ffffffffffffffffffffffffffffffffffffffff1690602001909291908035906020019092919080359060200190640100000000811115610a9257600080fd5b820183602082011115610aa457600080fd5b80359060200191846001830284011164010000000083111715610ac657600080fd5b91908080601f016020809104026020016040519081016040528093929190818152602001838380828437600081840152601f19601f820116905080830192505050505050509192919290505050611ec1565b005b348015610b2657600080fd5b50610b5d60048036036040811015610b3d57600080fd5b81019080803590602001909291908035906020019092919050505061207b565b005b348015610b6b57600080fd5b50610c2f60048036036040811015610b8257600080fd5b810190808035906020019092919080359060200190640100000000811115610ba957600080fd5b820183602082011115610bbb57600080fd5b80359060200191846001830284011164010000000083111715610bdd57600080fd5b91908080601f016020809104026020016040519081016040528093929190818152602001838380828437600081840152601f19601f82011690508083019250505050505050919291929050505061219e565b005b348015610c3d57600080fd5b50610c6a60048036036020811015610c5457600080fd5b810190808035906020019092919050505061230c565b604051808215151515815260200191505060405180910390f35b348015610c9057600080fd5b50610d7460048036036060811015610ca757600080fd5b81019080803573ffffffffffffffffffffffffffffffffffffffff1690602001909291908035906020019092919080359060200190640100000000811115610cee57600080fd5b820183602082011115610d0057600080fd5b80359060200191846001830284011164010000000083111715610d2257600080fd5b91908080601f016020809104026020016040519081016040528093929190818152602001838380828437600081840152601f19601f8201169050808301925050505050505091929192905050506123a5565b005b348015610d8257600080fd5b50610daf60048036036020811015610d9957600080fd5b8101908080359060200190929190505050612560565b604051808473ffffffffffffffffffffffffffffffffffffffff1673ffffffffffffffffffffffffffffffffffffffff16815260200180602001838152602001828103825284818151815260200191508051906020019080838360005b83811015610e27578082015181840152602081019050610e0c565b50505050905090810190601f168015610e545780820380516001836020036101000a031916815260200191505b5094505050505060405180910390f35b348015610e7057600080fd5b50610e9d60048036036020811015610e8757600080fd5b8101908080359060200190929190505050612651565b604051808473ffffffffffffffffffffffffffffffffffffffff1673ffffffffffffffffffffffffffffffffffffffff16815260200183815260200180602001828103825283818151815260200191508051906020019080838360005b83811015610f15578082015181840152602081019050610efa565b50505050905090810190601f168015610f425780820380516001836020036101000a031916815260200191505b5094505050505060405180910390f35b600481815481101515610f6157fe5b9060005260206000209060060201600091509050806000015490806001015490806002018054600181600116156101000203166002900480601f0160208091040260200160405190810160405280929190818152602001828054600181600116156101000203166002900480156110195780601f10610fee57610100808354040283529160200191611019565b820191906000526020600020905b815481529060010190602001808311610ffc57829003601f168201915b505050505090806003018054600181600116156101000203166002900480601f0160208091040260200160405190810160405280929190818152602001828054600181600116156101000203166002900480156110b75780601f1061108c576101008083540402835291602001916110b7565b820191906000526020600020905b81548152906001019060200180831161109a57829003601f168201915b5050505050908060040160009054906101000a900460ff16908060050154905086565b6006818154811015156110e957fe5b90600052602060002090600502016000915090508060000160009054906101000a900473ffffffffffffffffffffffffffffffffffffffff1690806001018054600181600116156101000203166002900480601f0160208091040260200160405190810160405280929190818152602001828054600181600116156101000203166002900480156111bb5780601f10611190576101008083540402835291602001916111bb565b820191906000526020600020905b81548152906001019060200180831161119e57829003601f168201915b5050505050908060020154908060030154905084565b6005818154811015156111e057fe5b90600052602060002090600302016000915090508060000160009054906101000a900473ffffffffffffffffffffffffffffffffffffffff1690806001018054600181600116156101000203166002900480601f0160208091040260200160405190810160405280929190818152602001828054600181600116156101000203166002900480156112b25780601f10611287576101008083540402835291602001916112b2565b820191906000526020600020905b81548152906001019060200180831161129557829003601f168201915b5050505050908060020154905083565b6000809054906101000a900473ffffffffffffffffffffffffffffffffffffffff1681565b6002600a60003373ffffffffffffffffffffffffffffffffffffffff1673ffffffffffffffffffffffffffffffffffffffff1681526020019081526020016000205414151561133557600080fd5b600160088281548110151561134657fe5b906000526020600020906006020160020160006101000a81548160ff02191690831515021790555050565b60088181548110151561138057fe5b90600052602060002090600602016000915090508060000154908060010154908060020160009054906101000a900460ff16908060030154905084565b6007818154811015156113cc57fe5b90600052602060002090600202016000915090508060000154908060010154905082565b6000809054906101000a900473ffffffffffffffffffffffffffffffffffffffff1673ffffffffffffffffffffffffffffffffffffffff163373ffffffffffffffffffffffffffffffffffffffff1614151561144b57600080fd5b600080905060008090505b60088481548110151561146557fe5b9060005260206000209060060201600401805490508110156114d2578260088581548110151561149157fe5b9060005260206000209060060201600401828154811015156114af57fe5b906000526020600020015414156114c557600191505b8080600101915050611456565b508015156114df57600080fd5b60016004838154811015156114f057fe5b906000526020600020906006020160040160006101000a81548160ff02191690831515021790555081600b600085815260200190815260200160002081905550505050565b60098181548110151561154457fe5b90600052602060002090600202016000915090508060000160009054906101000a900473ffffffffffffffffffffffffffffffffffffffff16908060010154905082565b6115918161230c565b151561159c57600080fd5b6009604080519081016040528060036004600b6000878152602001908152602001600020548154811015156115cd57fe5b9060005260206000209060060201600001548154811015156115eb57fe5b906000526020600020906004020160000160009054906101000a900473ffffffffffffffffffffffffffffffffffffffff1673ffffffffffffffffffffffffffffffffffffffff1681526020016004600b60008681526020019081526020016000205481548110151561165a57fe5b9060005260206000209060060201600501548152509080600181540180825580915050906001820390600052602060002090600202016000909192909190915060008201518160000160006101000a81548173ffffffffffffffffffffffffffffffffffffffff021916908373ffffffffffffffffffffffffffffffffffffffff1602179055506020820151816001015550505050565b60028181548110151561170057fe5b9060005260206000209060070201600091509050806000015490806001018054600181600116156101000203166002900480601f0160208091040260200160405190810160405280929190818152602001828054600181600116156101000203166002900480156117b25780601f10611787576101008083540402835291602001916117b2565b820191906000526020600020905b81548152906001019060200180831161179557829003601f168201915b5050505050908060020154908060030154908060040154908060050160009054906101000a900460ff16905086565b6002600a60003373ffffffffffffffffffffffffffffffffffffffff1673ffffffffffffffffffffffffffffffffffffffff16815260200190815260200160002054148061186e57506004600a60003373ffffffffffffffffffffffffffffffffffffffff1673ffffffffffffffffffffffffffffffffffffffff16815260200190815260200160002054145b80156118a4575060088281548110151561188457fe5b906000526020600020906006020160020160009054906101000a900460ff165b801561191857506008828154811015156118ba57fe5b906000526020600020906006020160050160003373ffffffffffffffffffffffffffffffffffffffff1673ffffffffffffffffffffffffffffffffffffffff16815260200190815260200160002060009054906101000a900460ff16155b151561192357600080fd5b6000600190506002600a60003373ffffffffffffffffffffffffffffffffffffffff1673ffffffffffffffffffffffffffffffffffffffff16815260200190815260200160002054141561197657600590505b600760408051908101604052808581526020018381525090806001815401808255809150509060018203906000526020600020906002020160009091929091909150600082015181600001556020820151816001015550505060016008848154811015156119e057fe5b906000526020600020906006020160050160003373ffffffffffffffffffffffffffffffffffffffff1673ffffffffffffffffffffffffffffffffffffffff16815260200190815260200160002060006101000a81548160ff021916908315150217905550600115158215151415611a855780600884815481101515611a6257fe5b906000526020600020906006020160030160008282540192505081905550611ab4565b80600884815481101515611a9557fe5b9060005260206000209060060201600301600082825403925050819055505b505050565b6003600a60003373ffffffffffffffffffffffffffffffffffffffff1673ffffffffffffffffffffffffffffffffffffffff16815260200190815260200160002054148015611b325750600884815481101515611b1257fe5b906000526020600020906006020160020160009054906101000a900460ff165b1515611b3d57600080fd5b600460c060405190810160405280878152602001868152602001858152602001848152602001600015158152602001838152509080600181540180825580915050906001820390600052602060002090600602016000909192909190915060008201518160000155602082015181600101556040820151816002019080519060200190611bcb929190612742565b506060820151816003019080519060200190611be8929190612742565b5060808201518160040160006101000a81548160ff02191690831515021790555060a08201518160050155505050600884815481101515611c2557fe5b906000526020600020906006020160040160016004805490500390806001815401808255809150509060018203906000526020600020016000909192909190915055506003600d600087815260200190815260200160002054815481101515611c8a57fe5b906000526020600020906004020160030160016004805490500390806001815401808255809150509060018203906000526020600020016000909192909190915055505050505050565b6000809054906101000a900473ffffffffffffffffffffffffffffffffffffffff1673ffffffffffffffffffffffffffffffffffffffff163373ffffffffffffffffffffffffffffffffffffffff16141515611d2f57600080fd5b60056060604051908101604052808573ffffffffffffffffffffffffffffffffffffffff168152602001838152602001848152509080600181540180825580915050906001820390600052602060002090600302016000909192909190915060008201518160000160006101000a81548173ffffffffffffffffffffffffffffffffffffffff021916908373ffffffffffffffffffffffffffffffffffffffff1602179055506020820151816001019080519060200190611df1929190612742565b50604082015181600201555050506001600580549050036010826040518082805190602001908083835b602083101515611e405780518252602082019150602081019050602083039250611e1b565b6001836020036101000a0380198251168184511680821785525050505050509050019150509081526020016040518091039020819055506004600a60008573ffffffffffffffffffffffffffffffffffffffff1673ffffffffffffffffffffffffffffffffffffffff16815260200190815260200160002081905550505050565b6000809054906101000a900473ffffffffffffffffffffffffffffffffffffffff1673ffffffffffffffffffffffffffffffffffffffff163373ffffffffffffffffffffffffffffffffffffffff16141515611f1c57600080fd5b606060016080604051908101604052808673ffffffffffffffffffffffffffffffffffffffff168152602001848152602001858152602001838152509080600181540180825580915050906001820390600052602060002090600402016000909192909190915060008201518160000160006101000a81548173ffffffffffffffffffffffffffffffffffffffff021916908373ffffffffffffffffffffffffffffffffffffffff1602179055506020820151816001019080519060200190611fe6929190612742565b5060408201518160020155606082015181600301908051906020019061200d9291906127c2565b505050506001808054905003600c6000858152602001908152602001600020819055506002600a60008673ffffffffffffffffffffffffffffffffffffffff1673ffffffffffffffffffffffffffffffffffffffff1681526020019081526020016000208190555050505050565b6060600860a060405190810160405280848152602001858152602001600015158152602001600081526020018381525090806001815401808255809150509060018203906000526020600020906006020160009091929091909150600082015181600001556020820151816001015560408201518160020160006101000a81548160ff0219169083151502179055506060820151816003015560808201518160040190805190602001906121309291906127c2565b505050506001600c60008481526020019081526020016000205481548110151561215657fe5b90600052602060002090600402016003016001600880549050039080600181540180825580915050906001820390600052602060002001600090919290919091505550505050565b6000809054906101000a900473ffffffffffffffffffffffffffffffffffffffff1673ffffffffffffffffffffffffffffffffffffffff163373ffffffffffffffffffffffffffffffffffffffff161415156121f957600080fd5b6060600260e0604051908101604052808581526020018481526020016000815260200160008152602001600081526020016000151581526020018381525090806001815401808255809150509060018203906000526020600020906007020160009091929091909150600082015181600001556020820151816001019080519060200190612288929190612742565b5060408201518160020155606082015181600301556080820151816004015560a08201518160050160006101000a81548160ff02191690831515021790555060c08201518160060190805190602001906122e39291906127c2565b50505050600160028054905003600e600085815260200190815260200160002081905550505050565b60008060009054906101000a900473ffffffffffffffffffffffffffffffffffffffff1673ffffffffffffffffffffffffffffffffffffffff163373ffffffffffffffffffffffffffffffffffffffff1614151561236957600080fd5b600060088381548110151561237a57fe5b906000526020600020906006020160030154111561239b57600190506123a0565b600090505b919050565b6000809054906101000a900473ffffffffffffffffffffffffffffffffffffffff1673ffffffffffffffffffffffffffffffffffffffff163373ffffffffffffffffffffffffffffffffffffffff1614151561240057600080fd5b606060036080604051908101604052808673ffffffffffffffffffffffffffffffffffffffff168152602001858152602001848152602001838152509080600181540180825580915050906001820390600052602060002090600402016000909192909190915060008201518160000160006101000a81548173ffffffffffffffffffffffffffffffffffffffff021916908373ffffffffffffffffffffffffffffffffffffffff1602179055506020820151816001015560408201518160020190805190602001906124d4929190612742565b5060608201518160030190805190602001906124f19291906127c2565b50505050600160038054905003600d6000858152602001908152602001600020819055506003600a60008673ffffffffffffffffffffffffffffffffffffffff1673ffffffffffffffffffffffffffffffffffffffff1681526020019081526020016000208190555050505050565b60018181548110151561256f57fe5b90600052602060002090600402016000915090508060000160009054906101000a900473ffffffffffffffffffffffffffffffffffffffff1690806001018054600181600116156101000203166002900480601f0160208091040260200160405190810160405280929190818152602001828054600181600116156101000203166002900480156126415780601f1061261657610100808354040283529160200191612641565b820191906000526020600020905b81548152906001019060200180831161262457829003601f168201915b5050505050908060020154905083565b60038181548110151561266057fe5b90600052602060002090600402016000915090508060000160009054906101000a900473ffffffffffffffffffffffffffffffffffffffff1690806001015490806002018054600181600116156101000203166002900480601f0160208091040260200160405190810160405280929190818152602001828054600181600116156101000203166002900480156127385780601f1061270d57610100808354040283529160200191612738565b820191906000526020600020905b81548152906001019060200180831161271b57829003601f168201915b5050505050905083565b828054600181600116156101000203166002900490600052602060002090601f016020900481019282601f1061278357805160ff19168380011785556127b1565b828001600101855582156127b1579182015b828111156127b0578251825591602001919060010190612795565b5b5090506127be919061280f565b5090565b8280548282559060005260206000209081019282156127fe579160200282015b828111156127fd5782518255916020019190600101906127e2565b5b50905061280b919061280f565b5090565b61283191905b8082111561282d576000816000905550600101612815565b5090565b9056fea165627a7a72305820407ac356198663d281b7d2eeb5b88f602bebd4f57f6fb20bcaf53662dc655df70029",
  "source": "/*\nTeam : 5 Reasons Why\n*/\npragma solidity >=0.4.25 <=0.6.0;\n\ncontract Level1\n{\n    address public state_gov;\n    struct  Proposal\n    {\n        uint organizationId;\n        uint contId;\n\n        string proposalDescription;\n        string proposalTitle;\n        bool is_awarded;\n\n        uint costEstimate;\n        /*uint duration; // in months\n        uint epoch; // in seconds\n        */\n\n    }\n\n    struct  Task\n    {\n       uint taskId;\n       string taskTitle;\n       /*\n       string taskDescription;// a description of the task\n       */\n\n       uint propId; // proposal chosen for this taskDescription\n       uint numVotes;\n       uint status;// (0-100) level of completion\n       bool is_completed ;\n\n       /*\n       uint propSubmisssionDeadline;\n       uint executionDeadline;\n       */\n       uint[] taskProposalsId;// proposalId's of proposals received for the given task\n\n    }\n\n\n    struct  Organization\n    {\n        address organizationAddress;// hash key for org\n\n        uint organizationId;\n        string organizationTitle;\n\n        uint[] organizationProposalsId; // proposalId's of proposals submitted by this organization\n    }\n\n\n    struct  District\n    {\n        address districtAddress; // hash key for district\n        string districtTitle;\n        uint districtId;\n        uint[] districtTasksId;\n    }\n\n    struct  Contract {\n        uint distId;\n        uint taskId;\n        bool isIssued;\n        uint votes;\n        uint[] ProposalIds;\n        mapping (address => bool) voted;\n    }\n\n    struct  Vote\n    {\n        uint contId;\n        uint vote_points; // 0-100\n    }\n    struct  Citizen\n    {\n        address citizenAddress;\n        string citizenName;\n        uint citizenId;\n        // indices of votes which this citizen has cast votes for\n    }\n\n    struct  Authority\n    {\n        address authorityAddress;\n        string authorityName;\n        uint authorityId;\n        uint authWeight;\n        uint[] authVote;\n    }\n\n    struct  Payment\n    {\n        address to;\n        uint cost;\n    }\n\n    District[] public districts;\n    Task[] public tasks;\n    Organization[] public organizations;\n    Proposal[] public proposals;\n    Citizen[] public citizens;\n    Authority[] public auths;\n    Vote[] public votes;\n    Contract[] public contracts;\n    Payment[] public payments;\n    mapping(address => uint) tag;\n    mapping(uint => uint) winners;\n    //mapping(address => bool) voted;\n\n    // Dictionary from id's to array indices\n    mapping(uint => uint) distMap;// distdId  to index in dist\n    mapping(uint => uint) orgMap; // orgI to index in organizations\n    mapping(uint => uint) taskMap;// taskId to index in tasks\n    mapping(uint => uint) propMap;// propId to index in proposals\n    mapping(string => uint) citiMap;// citiId to index in citizens\n\n\n    //mapping(uint => bool) // mapping from contract Id to bool\n\n\n    constructor() public\n    {\n        state_gov = msg.sender;\n        tag[msg.sender] = 1;\n    }\n\n    function registerTask(uint task_id, string memory task_title) public\n    {\n\n        require(msg.sender == state_gov);\n        uint[] memory empArr;\n        tasks.push(Task({taskId:task_id, taskTitle:task_title,numVotes:0, propId:0,status:0,is_completed: false, taskProposalsId:empArr}));\n        taskMap[task_id] = tasks.length-1;\n    }\n\n    // Registering a District\n    function registerDistrict(address dist_address, uint dist_Id, string memory dist_Title) public\n    {\n\n        require(msg.sender == state_gov);\n        uint[] memory empArr;\n        districts.push(District({districtAddress:dist_address,districtId: dist_Id, districtTitle:dist_Title,districtTasksId:empArr}));\n        distMap[dist_Id] = districts.length - 1;\n        tag[dist_address] = 2;\n    }\n    // Passing a contract from state government to a particular district\n    function passContract(uint task_id, uint dist_id) public\n    {\n        uint[] memory emp;\n        contracts.push(Contract({distId: dist_id, taskId: task_id, isIssued: false, votes: 0, ProposalIds: emp}));\n        districts[distMap[dist_id]].districtTasksId.push(contracts.length-1);\n    }\n\n    // Registering organizations with the state governments\n    function registerOrganization(address org_address, uint org_Id, string memory org_title) public\n    {\n        require(msg.sender == state_gov);\n        uint[] memory empArr;\n        organizations.push(Organization({organizationAddress:org_address, organizationId:org_Id, organizationTitle: org_title,organizationProposalsId:empArr}));\n\n        orgMap[org_Id] = organizations.length-1;\n        tag[org_address] = 3;\n    }\n\n    //Issue a particular contract\n    function issueContract(uint cont_id) public\n    {\n        require(tag[msg.sender] == 2);\n        contracts[cont_id].isIssued = true;\n    }\n\n    //Registering new proposals\n    function registerProposal(uint org_Id, uint cont_Id, string memory prop_Desc, string memory prop_Title, uint cost) public\n    {\n        require(tag[msg.sender] == 3 && contracts[cont_Id].isIssued);\n\n        proposals.push(Proposal({organizationId:org_Id, contId:cont_Id, is_awarded:false, proposalDescription:prop_Desc,proposalTitle:prop_Title, costEstimate: cost}));\n        contracts[cont_Id].ProposalIds.push(proposals.length-1);\n\n\n        // the current proposal has to be added to the respective organization\n        organizations[orgMap[org_Id]].organizationProposalsId.push(proposals.length-1);\n\n    }\n\n    //Choosing the winning Proposal\n    function winningProposal(uint cont_Id, uint prop_Id) public\n    {\n        require(msg.sender==state_gov);\n        bool found = false;\n        for (uint i = 0; i < contracts[cont_Id].ProposalIds.length; i++)\n            if (contracts[cont_Id].ProposalIds[i] == prop_Id)\n                found = true;\n        require(found);\n        proposals[prop_Id].is_awarded = true;\n        winners[cont_Id] = prop_Id;\n    }\n\n    //Registering new Citizens\n    function registerCitizen(address cit_address,uint cit_Id,string memory cit_Name) public\n    {\n        require(msg.sender == state_gov);\n        citizens.push(Citizen({citizenAddress:cit_address, citizenName: cit_Name, citizenId: cit_Id}));\n        citiMap[cit_Name] = citizens.length-1;\n        tag[cit_address] = 4;\n    }\n\n    // Accepting Votes for a particular task\n    function taskingVote(uint cont_Id,bool vote) public\n    {\n        // ensuring that the vote is cast by either a citizen or government and the contract is issued\n        require((tag[msg.sender] == 2 || tag[msg.sender] == 4 )&&contracts[cont_Id].isIssued && !contracts[cont_Id].voted[msg.sender]);\n\n        /*\n        TODO :\n            1. Take care of case when votes are being cast for task that is not awarded yet\n            2. Take care of citizen voting on the same task multiple times\n        //*/\n        uint weight = 1;\n        if (tag[msg.sender] == 2)\n            weight = 5;\n\n        votes.push(Vote({contId:cont_Id,vote_points:weight}));\n\n        contracts[cont_Id].voted[msg.sender] = true;\n\n        if (vote == true)\n            contracts[cont_Id].votes += weight;\n        else\n            contracts[cont_Id].votes -= weight;\n\n    }\n\n    function verifyCompletion(uint cont_id) view public returns (bool)\n    {\n        require(msg.sender==state_gov);\n        if (contracts[cont_id].votes > 0)\n            return true;\n        else\n            return false;\n    }\n\n    function payment (uint cont_id) public\n    {\n\n        require(verifyCompletion(cont_id));\n        payments.push(Payment(organizations[proposals[winners[cont_id]].organizationId].organizationAddress, proposals[winners[cont_id]].costEstimate));\n    }\n\n\n\n\n\n    //\n\n\n}\n",
  "sourcePath": "/home/revv/Desktop/backend/contracts/P.sol",
  "compiler": {
    "name": "solc",
    "version": "0.5.0+commit.1d4f565a.Emscripten.clang"
  },
  "schemaVersion": "3.0.3",
  "updatedAt": "2019-03-17T06:14:42.531Z",
  "devdoc": {
    "methods": {}
  },
  "userdoc": {
    "methods": {}
  }
}