{
  "contractName": "Level1",
  "abi": [
    {
      "constant": true,
      "inputs": [],
      "name": "state_gov",
      "outputs": [
        {
          "name": "",
          "type": "address"
        }
      ],
      "payable": false,
      "stateMutability": "view",
      "type": "function",
      "signature": "0x27afbbee"
    },
    {
      "constant": true,
      "inputs": [],
      "name": "addr",
      "outputs": [
        {
          "name": "",
          "type": "string"
        }
      ],
      "payable": false,
      "stateMutability": "view",
      "type": "function",
      "signature": "0x767800de"
    },
    {
      "constant": true,
      "inputs": [
        {
          "name": "",
          "type": "uint256"
        }
      ],
      "name": "tasks",
      "outputs": [
        {
          "name": "desc",
          "type": "string"
        },
        {
          "name": "status",
          "type": "uint256"
        }
      ],
      "payable": false,
      "stateMutability": "view",
      "type": "function",
      "signature": "0x8d977672"
    },
    {
      "constant": true,
      "inputs": [
        {
          "name": "",
          "type": "uint256"
        }
      ],
      "name": "conts",
      "outputs": [
        {
          "name": "taskID",
          "type": "uint256"
        },
        {
          "name": "distADD",
          "type": "address"
        }
      ],
      "payable": false,
      "stateMutability": "view",
      "type": "function",
      "signature": "0xb3c3c85a"
    },
    {
      "constant": true,
      "inputs": [
        {
          "name": "",
          "type": "uint256"
        }
      ],
      "name": "dists",
      "outputs": [
        {
          "name": "add",
          "type": "address"
        },
        {
          "name": "name",
          "type": "string"
        }
      ],
      "payable": false,
      "stateMutability": "view",
      "type": "function",
      "signature": "0xdc8999b4"
    },
    {
      "inputs": [],
      "payable": false,
      "stateMutability": "nonpayable",
      "type": "constructor",
      "signature": "constructor"
    },
    {
      "constant": true,
      "inputs": [
        {
          "name": "idx",
          "type": "uint256"
        }
      ],
      "name": "getTaskId",
      "outputs": [
        {
          "name": "",
          "type": "uint256"
        }
      ],
      "payable": false,
      "stateMutability": "view",
      "type": "function",
      "signature": "0xd44bc088"
    },
    {
      "constant": true,
      "inputs": [
        {
          "name": "idx",
          "type": "uint256"
        }
      ],
      "name": "getDistAddress",
      "outputs": [
        {
          "name": "",
          "type": "address"
        }
      ],
      "payable": false,
      "stateMutability": "view",
      "type": "function",
      "signature": "0x035cc4f8"
    },
    {
      "constant": true,
      "inputs": [
        {
          "name": "idx",
          "type": "uint256"
        }
      ],
      "name": "getAddress",
      "outputs": [
        {
          "name": "",
          "type": "address"
        }
      ],
      "payable": false,
      "stateMutability": "view",
      "type": "function",
      "signature": "0xb93f9b0a"
    },
    {
      "constant": true,
      "inputs": [
        {
          "name": "idx",
          "type": "uint256"
        }
      ],
      "name": "getName",
      "outputs": [
        {
          "name": "",
          "type": "string"
        }
      ],
      "payable": false,
      "stateMutability": "view",
      "type": "function",
      "signature": "0x6b8ff574"
    },
    {
      "constant": true,
      "inputs": [
        {
          "name": "idx",
          "type": "uint256"
        }
      ],
      "name": "getDescription",
      "outputs": [
        {
          "name": "",
          "type": "string"
        }
      ],
      "payable": false,
      "stateMutability": "view",
      "type": "function",
      "signature": "0x4925ec55"
    },
    {
      "constant": true,
      "inputs": [
        {
          "name": "idx",
          "type": "uint256"
        }
      ],
      "name": "getStatus",
      "outputs": [
        {
          "name": "",
          "type": "uint256"
        }
      ],
      "payable": false,
      "stateMutability": "view",
      "type": "function",
      "signature": "0x5c622a0e"
    },
    {
      "constant": false,
      "inputs": [
        {
          "name": "d",
          "type": "string"
        }
      ],
      "name": "addTask",
      "outputs": [],
      "payable": false,
      "stateMutability": "nonpayable",
      "type": "function",
      "signature": "0x67238562"
    },
    {
      "constant": false,
      "inputs": [
        {
          "name": "a",
          "type": "address"
        },
        {
          "name": "n",
          "type": "string"
        }
      ],
      "name": "registerDistrict",
      "outputs": [],
      "payable": false,
      "stateMutability": "nonpayable",
      "type": "function",
      "signature": "0xd0331742"
    },
    {
      "constant": false,
      "inputs": [
        {
          "name": "n",
          "type": "string"
        },
        {
          "name": "tsk",
          "type": "uint256"
        }
      ],
      "name": "issueContract",
      "outputs": [],
      "payable": false,
      "stateMutability": "nonpayable",
      "type": "function",
      "signature": "0x95c9dd1c"
    },
    {
      "constant": true,
      "inputs": [
        {
          "name": "districtId",
          "type": "uint256"
        }
      ],
      "name": "getProjects",
      "outputs": [
        {
          "name": "",
          "type": "uint256[]"
        }
      ],
      "payable": false,
      "stateMutability": "view",
      "type": "function",
      "signature": "0x20628b48"
    }
  ],
  "bytecode": "0x60806040526040805190810160405280600381526020017f30783000000000000000000000000000000000000000000000000000000000008152506001908051906020019062000051929190620000a6565b503480156200005f57600080fd5b50336000806101000a81548173ffffffffffffffffffffffffffffffffffffffff021916908373ffffffffffffffffffffffffffffffffffffffff16021790555062000155565b828054600181600116156101000203166002900490600052602060002090601f016020900481019282601f10620000e957805160ff19168380011785556200011a565b828001600101855582156200011a579182015b8281111562000119578251825591602001919060010190620000fc565b5b5090506200012991906200012d565b5090565b6200015291905b808211156200014e57600081600090555060010162000134565b5090565b90565b61154a80620001656000396000f3006080604052600436106100db576000357c0100000000000000000000000000000000000000000000000000000000900463ffffffff168063035cc4f8146100e057806320628b481461014d57806327afbbee146101cf5780634925ec55146102265780635c622a0e146102cc578063672385621461030d5780636b8ff57414610376578063767800de1461041c5780638d977672146104ac57806395c9dd1c14610559578063b3c3c85a146105cc578063b93f9b0a14610640578063d0331742146106ad578063d44bc08814610736578063dc8999b414610777575b600080fd5b3480156100ec57600080fd5b5061010b60048036038101908080359060200190929190505050610850565b604051808273ffffffffffffffffffffffffffffffffffffffff1673ffffffffffffffffffffffffffffffffffffffff16815260200191505060405180910390f35b34801561015957600080fd5b506101786004803603810190808035906020019092919050505061089a565b6040518080602001828103825283818151815260200191508051906020019060200280838360005b838110156101bb5780820151818401526020810190506101a0565b505050509050019250505060405180910390f35b3480156101db57600080fd5b506101e4610912565b604051808273ffffffffffffffffffffffffffffffffffffffff1673ffffffffffffffffffffffffffffffffffffffff16815260200191505060405180910390f35b34801561023257600080fd5b5061025160048036038101908080359060200190929190505050610937565b6040518080602001828103825283818151815260200191508051906020019080838360005b83811015610291578082015181840152602081019050610276565b50505050905090810190601f1680156102be5780820380516001836020036101000a031916815260200191505b509250505060405180910390f35b3480156102d857600080fd5b506102f7600480360381019080803590602001909291905050506109f9565b6040518082815260200191505060405180910390f35b34801561031957600080fd5b50610374600480360381019080803590602001908201803590602001908080601f0160208091040260200160405190810160405280939291908181526020018383808284378201915050505050509192919290505050610a23565b005b34801561038257600080fd5b506103a160048036038101908080359060200190929190505050610aee565b6040518080602001828103825283818151815260200191508051906020019080838360005b838110156103e15780820151818401526020810190506103c6565b50505050905090810190601f16801561040e5780820380516001836020036101000a031916815260200191505b509250505060405180910390f35b34801561042857600080fd5b50610431610bb0565b6040518080602001828103825283818151815260200191508051906020019080838360005b83811015610471578082015181840152602081019050610456565b50505050905090810190601f16801561049e5780820380516001836020036101000a031916815260200191505b509250505060405180910390f35b3480156104b857600080fd5b506104d760048036038101908080359060200190929190505050610c4e565b6040518080602001838152602001828103825284818151815260200191508051906020019080838360005b8381101561051d578082015181840152602081019050610502565b50505050905090810190601f16801561054a5780820380516001836020036101000a031916815260200191505b50935050505060405180910390f35b34801561056557600080fd5b506105ca600480360381019080803590602001908201803590602001908080601f016020809104026020016040519081016040528093929190818152602001838380828437820191505050505050919291929080359060200190929190505050610d19565b005b3480156105d857600080fd5b506105f760048036038101908080359060200190929190505050611026565b604051808381526020018273ffffffffffffffffffffffffffffffffffffffff1673ffffffffffffffffffffffffffffffffffffffff1681526020019250505060405180910390f35b34801561064c57600080fd5b5061066b60048036038101908080359060200190929190505050611079565b604051808273ffffffffffffffffffffffffffffffffffffffff1673ffffffffffffffffffffffffffffffffffffffff16815260200191505060405180910390f35b3480156106b957600080fd5b50610734600480360381019080803573ffffffffffffffffffffffffffffffffffffffff169060200190929190803590602001908201803590602001908080601f01602080910402602001604051908101604052809392919081815260200183838082843782019150505050505091929192905050506110c3565b005b34801561074257600080fd5b5061076160048036038101908080359060200190929190505050611297565b6040518082815260200191505060405180910390f35b34801561078357600080fd5b506107a2600480360381019080803590602001909291905050506112c1565b604051808373ffffffffffffffffffffffffffffffffffffffff1673ffffffffffffffffffffffffffffffffffffffff16815260200180602001828103825283818151815260200191508051906020019080838360005b838110156108145780820151818401526020810190506107f9565b50505050905090810190601f1680156108415780820380516001836020036101000a031916815260200191505b50935050505060405180910390f35b600060058281548110151561086157fe5b906000526020600020906002020160010160009054906101000a900473ffffffffffffffffffffffffffffffffffffffff169050919050565b60606003828154811015156108ab57fe5b906000526020600020906003020160020180548060200260200160405190810160405280929190818152602001828054801561090657602002820191906000526020600020905b8154815260200190600101908083116108f2575b50505050509050919050565b6000809054906101000a900473ffffffffffffffffffffffffffffffffffffffff1681565b606060048281548110151561094857fe5b90600052602060002090600202016000018054600181600116156101000203166002900480601f0160208091040260200160405190810160405280929190818152602001828054600181600116156101000203166002900480156109ed5780601f106109c2576101008083540402835291602001916109ed565b820191906000526020600020905b8154815290600101906020018083116109d057829003601f168201915b50505050509050919050565b6000600482815481101515610a0a57fe5b9060005260206000209060020201600101549050919050565b6000809054906101000a900473ffffffffffffffffffffffffffffffffffffffff1673ffffffffffffffffffffffffffffffffffffffff163373ffffffffffffffffffffffffffffffffffffffff16141515610a7e57600080fd5b600460408051908101604052808381526020016000815250908060018154018082558091505090600182039060005260206000209060020201600090919290919091506000820151816000019080519060200190610add9291906113ac565b506020820151816001015550505050565b6060600382815481101515610aff57fe5b90600052602060002090600302016001018054600181600116156101000203166002900480601f016020809104026020016040519081016040528092919081815260200182805460018160011615610100020316600290048015610ba45780601f10610b7957610100808354040283529160200191610ba4565b820191906000526020600020905b815481529060010190602001808311610b8757829003601f168201915b50505050509050919050565b60018054600181600116156101000203166002900480601f016020809104026020016040519081016040528092919081815260200182805460018160011615610100020316600290048015610c465780601f10610c1b57610100808354040283529160200191610c46565b820191906000526020600020905b815481529060010190602001808311610c2957829003601f168201915b505050505081565b600481815481101515610c5d57fe5b9060005260206000209060020201600091509050806000018054600181600116156101000203166002900480601f016020809104026020016040519081016040528092919081815260200182805460018160011615610100020316600290048015610d095780601f10610cde57610100808354040283529160200191610d09565b820191906000526020600020905b815481529060010190602001808311610cec57829003601f168201915b5050505050908060010154905082565b60008060009054906101000a900473ffffffffffffffffffffffffffffffffffffffff1673ffffffffffffffffffffffffffffffffffffffff163373ffffffffffffffffffffffffffffffffffffffff16141515610d7657600080fd5b6005604080519081016040528084815260200160036002876040518082805190602001908083835b602083101515610dc35780518252602082019150602081019050602083039250610d9e565b6001836020036101000a038019825116818451168082178552505050505050905001915050908152602001604051809103902054815481101515610e0357fe5b906000526020600020906003020160000160009054906101000a900473ffffffffffffffffffffffffffffffffffffffff1673ffffffffffffffffffffffffffffffffffffffff16815250908060018154018082558091505090600182039060005260206000209060020201600090919290919091506000820151816000015560208201518160010160006101000a81548173ffffffffffffffffffffffffffffffffffffffff021916908373ffffffffffffffffffffffffffffffffffffffff16021790555050505060036002846040518082805190602001908083835b602083101515610f075780518252602082019150602081019050602083039250610ee2565b6001836020036101000a038019825116818451168082178552505050505050905001915050908152602001604051809103902054815481101515610f4757fe5b9060005260206000209060030201905080600201829080600181540180825580915050906001820390600052602060002001600090919290919091505550600060036002856040518082805190602001908083835b602083101515610fc15780518252602082019150602081019050602083039250610f9c565b6001836020036101000a03801982511681845116808217855250505050505090500191505090815260200160405180910390205481548110151561100157fe5b906000526020600020906003020160020180549050141561102157600080fd5b505050565b60058181548110151561103557fe5b90600052602060002090600202016000915090508060000154908060010160009054906101000a900473ffffffffffffffffffffffffffffffffffffffff16905082565b600060038281548110151561108a57fe5b906000526020600020906003020160000160009054906101000a900473ffffffffffffffffffffffffffffffffffffffff169050919050565b60606000809054906101000a900473ffffffffffffffffffffffffffffffffffffffff1673ffffffffffffffffffffffffffffffffffffffff163373ffffffffffffffffffffffffffffffffffffffff1614151561112057600080fd5b60036060604051908101604052808573ffffffffffffffffffffffffffffffffffffffff168152602001848152602001838152509080600181540180825580915050906001820390600052602060002090600302016000909192909190915060008201518160000160006101000a81548173ffffffffffffffffffffffffffffffffffffffff021916908373ffffffffffffffffffffffffffffffffffffffff16021790555060208201518160010190805190602001906111e29291906113ac565b5060408201518160020190805190602001906111ff92919061142c565b505050506001600380549050036002836040518082805190602001908083835b602083101515611244578051825260208201915060208101905060208303925061121f565b6001836020036101000a0380198251168184511680821785525050505050509050019150509081526020016040518091039020819055508160019080519060200190611291929190611479565b50505050565b60006005828154811015156112a857fe5b9060005260206000209060020201600001549050919050565b6003818154811015156112d057fe5b90600052602060002090600302016000915090508060000160009054906101000a900473ffffffffffffffffffffffffffffffffffffffff1690806001018054600181600116156101000203166002900480601f0160208091040260200160405190810160405280929190818152602001828054600181600116156101000203166002900480156113a25780601f10611377576101008083540402835291602001916113a2565b820191906000526020600020905b81548152906001019060200180831161138557829003601f168201915b5050505050905082565b828054600181600116156101000203166002900490600052602060002090601f016020900481019282601f106113ed57805160ff191683800117855561141b565b8280016001018555821561141b579182015b8281111561141a5782518255916020019190600101906113ff565b5b50905061142891906114f9565b5090565b828054828255906000526020600020908101928215611468579160200282015b8281111561146757825182559160200191906001019061144c565b5b50905061147591906114f9565b5090565b828054600181600116156101000203166002900490600052602060002090601f016020900481019282601f106114ba57805160ff19168380011785556114e8565b828001600101855582156114e8579182015b828111156114e75782518255916020019190600101906114cc565b5b5090506114f591906114f9565b5090565b61151b91905b808211156115175760008160009055506001016114ff565b5090565b905600a165627a7a72305820117ca630becba8c2120a1c1d2905fd71a14cdbc53dfdefd561621cf8a16541d00029",
  "source": "pragma solidity ^0.4.25;\n\ncontract Level1 {\n    address public state_gov;\n\n    string public addr = '0x0';\n\n    struct Task {\n        string desc;\n        uint status;\n    }\n\n\n    struct District {\n        address add;\n        string name;\n        uint[] prj;\n\n\n\n    }\n\n    struct Contracts {\n        uint taskID;\n        address distADD;\n        }\n\n    mapping(string => uint) district;\n\n    District[] public dists;\n    Task[] public tasks;\n    Contracts[] public conts;\n\n\n\n    function getTaskId(uint idx) public view returns(uint)\n    {\n        return conts[idx].taskID;\n    }\n\n    function getDistAddress(uint idx) public view returns(address)\n    {\n            return conts[idx].distADD;\n    }\n\n    //Getters for Districts\n    function getAddress(uint idx) public view returns(address)\n    {\n        return dists[idx].add;\n    }\n\n    function getName(uint idx) public view returns(string)\n    {\n        return dists[idx].name;\n    }\n\n\n\n\n    // Getters for Tasks\n    function getDescription(uint idx) public view returns(string)\n    {\n        return tasks[idx].desc;\n    }\n\n    function getStatus(uint idx) public view returns (uint)\n    {\n        return tasks[idx].status;\n    }\n\n\n    constructor() public {\n        state_gov = msg.sender;\n    }\n\n    function addTask(string memory d) public {\n        require(msg.sender == state_gov);\n        tasks.push(Task({desc: d, status: 0}));\n    }\n\n    function registerDistrict(address a, string memory n) public {\n        require(msg.sender == state_gov);\n        uint[] memory emp;\n        dists.push(District({add: a, name: n, prj: emp}));\n        district[n] = dists.length - 1;\n        addr = n;\n    }\n\n    function issueContract(string memory n, uint tsk) public {\n        require(msg.sender == state_gov);\n        conts.push(Contracts({taskID: tsk, distADD: dists[district[n]].add}));\n        District storage d = dists[district[n]];\n        d.prj.push(tsk);\n        if (dists[district[n]].prj.length == 0)\n            revert();\n    }\n\n    function getProjects(uint districtId) public view returns (uint[]) {\n            return dists[districtId].prj;\n    }\n\n}\n",
  "sourcePath": "/home/harsh/Documents/pr/contracts/Level1.sol",
  "compiler": {
    "name": "solc",
    "version": "0.4.25+commit.59dbf8f1.Emscripten.clang"
  },
  "schemaVersion": "3.0.3",
  "updatedAt": "2019-03-16T07:36:25.939Z",
  "devdoc": {
    "methods": {}
  },
  "userdoc": {
    "methods": {}
  }
}